{
  "_format": "hh-sol-artifact-1",
  "contractName": "PredictionMarketFactory",
  "sourceName": "contracts/PredictionMarketFactory.sol",
  "abi": [
    {
      "inputs": [],
      "stateMutability": "nonpayable",
      "type": "constructor"
    },
    {
      "anonymous": false,
      "inputs": [
        {
          "indexed": false,
          "internalType": "uint256",
          "name": "oldFee",
          "type": "uint256"
        },
        {
          "indexed": false,
          "internalType": "uint256",
          "name": "newFee",
          "type": "uint256"
        }
      ],
      "name": "CreationFeeUpdated",
      "type": "event"
    },
    {
      "anonymous": false,
      "inputs": [
        {
          "indexed": true,
          "internalType": "address",
          "name": "owner",
          "type": "address"
        },
        {
          "indexed": false,
          "internalType": "uint256",
          "name": "amount",
          "type": "uint256"
        }
      ],
      "name": "FeesWithdrawn",
      "type": "event"
    },
    {
      "anonymous": false,
      "inputs": [
        {
          "indexed": true,
          "internalType": "uint256",
          "name": "marketId",
          "type": "uint256"
        },
        {
          "indexed": true,
          "internalType": "address",
          "name": "marketAddress",
          "type": "address"
        },
        {
          "indexed": true,
          "internalType": "address",
          "name": "creator",
          "type": "address"
        },
        {
          "indexed": false,
          "internalType": "string",
          "name": "question",
          "type": "string"
        },
        {
          "indexed": false,
          "internalType": "uint256",
          "name": "endTime",
          "type": "uint256"
        }
      ],
      "name": "MarketCreated",
      "type": "event"
    },
    {
      "inputs": [
        {
          "internalType": "string",
          "name": "_question",
          "type": "string"
        },
        {
          "internalType": "string",
          "name": "_description",
          "type": "string"
        },
        {
          "internalType": "uint256",
          "name": "_durationDays",
          "type": "uint256"
        }
      ],
      "name": "createMarket",
      "outputs": [
        {
          "internalType": "address",
          "name": "marketAddress",
          "type": "address"
        },
        {
          "internalType": "uint256",
          "name": "marketId",
          "type": "uint256"
        }
      ],
      "stateMutability": "payable",
      "type": "function"
    },
    {
      "inputs": [],
      "name": "creationFee",
      "outputs": [
        {
          "internalType": "uint256",
          "name": "",
          "type": "uint256"
        }
      ],
      "stateMutability": "view",
      "type": "function"
    },
    {
      "inputs": [],
      "name": "getAllMarkets",
      "outputs": [
        {
          "internalType": "address[]",
          "name": "",
          "type": "address[]"
        }
      ],
      "stateMutability": "view",
      "type": "function"
    },
    {
      "inputs": [
        {
          "internalType": "uint256",
          "name": "_marketId",
          "type": "uint256"
        }
      ],
      "name": "getMarketInfo",
      "outputs": [
        {
          "internalType": "address",
          "name": "marketAddress",
          "type": "address"
        },
        {
          "internalType": "string",
          "name": "question",
          "type": "string"
        },
        {
          "internalType": "uint256",
          "name": "endTime",
          "type": "uint256"
        },
        {
          "internalType": "bool",
          "name": "isResolved",
          "type": "bool"
        },
        {
          "internalType": "uint256",
          "name": "totalPool",
          "type": "uint256"
        }
      ],
      "stateMutability": "view",
      "type": "function"
    },
    {
      "inputs": [
        {
          "internalType": "address",
          "name": "_creator",
          "type": "address"
        }
      ],
      "name": "getMarketsByCreator",
      "outputs": [
        {
          "internalType": "address[]",
          "name": "",
          "type": "address[]"
        }
      ],
      "stateMutability": "view",
      "type": "function"
    },
    {
      "inputs": [
        {
          "internalType": "uint256",
          "name": "_count",
          "type": "uint256"
        }
      ],
      "name": "getRecentMarkets",
      "outputs": [
        {
          "internalType": "address[]",
          "name": "",
          "type": "address[]"
        }
      ],
      "stateMutability": "view",
      "type": "function"
    },
    {
      "inputs": [
        {
          "internalType": "uint256",
          "name": "",
          "type": "uint256"
        }
      ],
      "name": "marketById",
      "outputs": [
        {
          "internalType": "address",
          "name": "",
          "type": "address"
        }
      ],
      "stateMutability": "view",
      "type": "function"
    },
    {
      "inputs": [],
      "name": "marketCount",
      "outputs": [
        {
          "internalType": "uint256",
          "name": "",
          "type": "uint256"
        }
      ],
      "stateMutability": "view",
      "type": "function"
    },
    {
      "inputs": [
        {
          "internalType": "uint256",
          "name": "",
          "type": "uint256"
        }
      ],
      "name": "markets",
      "outputs": [
        {
          "internalType": "address",
          "name": "",
          "type": "address"
        }
      ],
      "stateMutability": "view",
      "type": "function"
    },
    {
      "inputs": [
        {
          "internalType": "address",
          "name": "",
          "type": "address"
        },
        {
          "internalType": "uint256",
          "name": "",
          "type": "uint256"
        }
      ],
      "name": "marketsByCreator",
      "outputs": [
        {
          "internalType": "address",
          "name": "",
          "type": "address"
        }
      ],
      "stateMutability": "view",
      "type": "function"
    },
    {
      "inputs": [],
      "name": "owner",
      "outputs": [
        {
          "internalType": "address",
          "name": "",
          "type": "address"
        }
      ],
      "stateMutability": "view",
      "type": "function"
    },
    {
      "inputs": [
        {
          "internalType": "uint256",
          "name": "_newFee",
          "type": "uint256"
        }
      ],
      "name": "setCreationFee",
      "outputs": [],
      "stateMutability": "nonpayable",
      "type": "function"
    },
    {
      "inputs": [
        {
          "internalType": "address",
          "name": "_newOwner",
          "type": "address"
        }
      ],
      "name": "transferOwnership",
      "outputs": [],
      "stateMutability": "nonpayable",
      "type": "function"
    },
    {
      "inputs": [],
      "name": "withdrawFees",
      "outputs": [],
      "stateMutability": "nonpayable",
      "type": "function"
    },
    {
      "stateMutability": "payable",
      "type": "receive"
    }
  ],
  "bytecode": "0x608060405234801561001057600080fd5b50600080546001600160a01b03191633178155600255612c01806100356000396000f3fe608060405260043610620000f35760003560e01c8063b7d862251162000089578063e99c80bd1162000060578063e99c80bd14620002ad578063ec97908214620002d2578063f2fde38b14620002ea578063f98b7783146200030f57600080fd5b8063b7d862251462000227578063bc37bf55146200024c578063dce0b4e4146200028657600080fd5b80636220a2f111620000ca5780636220a2f114620001945780638da5cb5b14620001c8578063b0772d0b14620001ea578063b1283e77146200020257600080fd5b806313ba3d1414620001005780633ec791931462000142578063476343ee146200017a57600080fd5b36620000fb57005b600080fd5b3480156200010d57600080fd5b50620001256200011f36600462000cf5565b62000346565b6040516001600160a01b0390911681526020015b60405180910390f35b3480156200014f57600080fd5b50620001676200016136600462000d22565b6200037f565b6040516200013995949392919062000d62565b3480156200018757600080fd5b50620001926200058f565b005b348015620001a157600080fd5b50620001b9620001b336600462000d22565b620006d5565b60405162000139919062000dba565b348015620001d557600080fd5b5060005462000125906001600160a01b031681565b348015620001f757600080fd5b50620001b9620007e1565b3480156200020f57600080fd5b50620001256200022136600462000d22565b62000845565b3480156200023457600080fd5b50620001926200024636600462000d22565b62000870565b3480156200025957600080fd5b50620001256200026b36600462000d22565b6004602052600090815260409020546001600160a01b031681565b3480156200029357600080fd5b506200029e60025481565b60405190815260200162000139565b348015620002ba57600080fd5b50620001b9620002cc36600462000e09565b620008de565b348015620002df57600080fd5b506200029e60015481565b348015620002f757600080fd5b50620001926200030936600462000e09565b62000956565b620003266200032036600462000e7a565b620009ef565b604080516001600160a01b03909316835260208301919091520162000139565b600560205281600052604060002081815481106200036357600080fd5b6000918252602090912001546001600160a01b03169150829050565b6000606060008060006001548610620003cc5760405162461bcd60e51b815260206004820152600a602482015269125b9d985b1a5908125160b21b60448201526064015b60405180910390fd5b60008681526004602081905260408083205481516301fd6cd760e51b815291516001600160a01b039091169384938493633fad9ae093818301939290918290030181865afa15801562000423573d6000803e3d6000fd5b505050506040513d6000823e601f3d908101601f191682016040526200044d919081019062000f0b565b826001600160a01b0316633197cbb66040518163ffffffff1660e01b8152600401602060405180830381865afa1580156200048c573d6000803e3d6000fd5b505050506040513d601f19601f82011682018060405250810190620004b2919062000fc4565b836001600160a01b031663dbb3f5376040518163ffffffff1660e01b8152600401602060405180830381865afa158015620004f1573d6000803e3d6000fd5b505050506040513d601f19601f8201168201806040525081019062000517919062000fde565b846001600160a01b031663ecfb49a36040518163ffffffff1660e01b8152600401602060405180830381865afa15801562000556573d6000803e3d6000fd5b505050506040513d601f19601f820116820180604052508101906200057c919062000fc4565b939b929a50909850965090945092505050565b6000546001600160a01b03163314620005bc5760405162461bcd60e51b8152600401620003c39062001002565b4780620005f65760405162461bcd60e51b81526020600482015260076024820152664e6f206665657360c81b6044820152606401620003c3565b600080546040516001600160a01b039091169083908381818185875af1925050503d806000811462000645576040519150601f19603f3d011682016040523d82523d6000602084013e6200064a565b606091505b50509050806200068f5760405162461bcd60e51b815260206004820152600f60248201526e151c985b9cd9995c8819985a5b1959608a1b6044820152606401620003c3565b6000546040518381526001600160a01b03909116907fc0819c13be868895eb93e40eaceb96de976442fa1d404e5c55f14bb65a8c489a9060200160405180910390a25050565b606060006001548311620006ea5782620006ee565b6001545b905060008167ffffffffffffffff8111156200070e576200070e62000ef5565b60405190808252806020026020018201604052801562000738578160200160208202803683370190505b50905060005b82811015620007d957600381600180546200075a91906200103c565b6200076691906200103c565b8154811062000779576200077962001058565b9060005260206000200160009054906101000a90046001600160a01b0316828281518110620007ac57620007ac62001058565b6001600160a01b039092166020928302919091019091015280620007d0816200106e565b9150506200073e565b509392505050565b606060038054806020026020016040519081016040528092919081815260200182805480156200083b57602002820191906000526020600020905b81546001600160a01b031681526001909101906020018083116200081c575b5050505050905090565b600381815481106200085657600080fd5b6000918252602090912001546001600160a01b0316905081565b6000546001600160a01b031633146200089d5760405162461bcd60e51b8152600401620003c39062001002565b60025460408051918252602082018390527f5de302eeb1c80d4fb0c0953b692353f09ddf431411b8eb2034d5e85769561912910160405180910390a1600255565b6001600160a01b0381166000908152600560209081526040918290208054835181840281018401909452808452606093928301828280156200094a57602002820191906000526020600020905b81546001600160a01b031681526001909101906020018083116200092b575b50505050509050919050565b6000546001600160a01b03163314620009835760405162461bcd60e51b8152600401620003c39062001002565b6001600160a01b038116620009cd5760405162461bcd60e51b815260206004820152600f60248201526e496e76616c6964206164647265737360881b6044820152606401620003c3565b600080546001600160a01b0319166001600160a01b0392909216919091179055565b60008060025434101562000a395760405162461bcd60e51b815260206004820152601060248201526f496e73756666696369656e742066656560801b6044820152606401620003c3565b8562000a795760405162461bcd60e51b815260206004820152600e60248201526d22b6b83a3c9038bab2b9ba34b7b760911b6044820152606401620003c3565b60008311801562000a8c575061016d8311155b62000acd5760405162461bcd60e51b815260206004820152601060248201526f24b73b30b634b210323ab930ba34b7b760811b6044820152606401620003c3565b600033888888888860405162000ae39062000cca565b62000af496959493929190620010b3565b604051809103906000f08015801562000b11573d6000803e3d6000fd5b5060018054600380548084019091557fc2575a0e9e593c00f959f8c92f12db2869c3395a3b0502d05e2516446f71f85b0180546001600160a01b0385166001600160a01b0319918216811790925560008381526004602090815260408083208054851686179055338352600582528220805480880182559083529082200180549092169092179055825493965090945085935062000baf836200106e565b909155503390506001600160a01b038416837fc0ffde4870f27b1ba7a3b105f766fb21bdd8c783360f6095de8aad77c372aef38b8b62000bf38a6201518062001103565b62000bff90426200111d565b60405162000c109392919062001133565b60405180910390a460025434111562000cbf57600254600090339062000c3790346200103c565b604051600081818185875af1925050503d806000811462000c75576040519150601f19603f3d011682016040523d82523d6000602084013e62000c7a565b606091505b505090508062000cbd5760405162461bcd60e51b815260206004820152600d60248201526c1499599d5b990819985a5b1959609a1b6044820152606401620003c3565b505b509550959350505050565b611a72806200115a83390190565b80356001600160a01b038116811462000cf057600080fd5b919050565b6000806040838503121562000d0957600080fd5b62000d148362000cd8565b946020939093013593505050565b60006020828403121562000d3557600080fd5b5035919050565b60005b8381101562000d5957818101518382015260200162000d3f565b50506000910152565b60018060a01b038616815260a06020820152600085518060a084015262000d918160c0850160208a0162000d3c565b6040830195909552509115156060830152608082015260c0601f909201601f1916010192915050565b6020808252825182820181905260009190848201906040850190845b8181101562000dfd5783516001600160a01b03168352928401929184019160010162000dd6565b50909695505050505050565b60006020828403121562000e1c57600080fd5b62000e278262000cd8565b9392505050565b60008083601f84011262000e4157600080fd5b50813567ffffffffffffffff81111562000e5a57600080fd5b60208301915083602082850101111562000e7357600080fd5b9250929050565b60008060008060006060868803121562000e9357600080fd5b853567ffffffffffffffff8082111562000eac57600080fd5b62000eba89838a0162000e2e565b9097509550602088013591508082111562000ed457600080fd5b5062000ee38882890162000e2e565b96999598509660400135949350505050565b634e487b7160e01b600052604160045260246000fd5b60006020828403121562000f1e57600080fd5b815167ffffffffffffffff8082111562000f3757600080fd5b818401915084601f83011262000f4c57600080fd5b81518181111562000f615762000f6162000ef5565b604051601f8201601f19908116603f0116810190838211818310171562000f8c5762000f8c62000ef5565b8160405282815287602084870101111562000fa657600080fd5b62000fb983602083016020880162000d3c565b979650505050505050565b60006020828403121562000fd757600080fd5b5051919050565b60006020828403121562000ff157600080fd5b8151801515811462000e2757600080fd5b6020808252600a908201526927b7363c9037bbb732b960b11b604082015260600190565b634e487b7160e01b600052601160045260246000fd5b8181038181111562001052576200105262001026565b92915050565b634e487b7160e01b600052603260045260246000fd5b60006001820162001083576200108362001026565b5060010190565b81835281816020850137506000828201602090810191909152601f909101601f19169091010190565b6001600160a01b0387168152608060208201819052600090620010da90830187896200108a565b8281036040840152620010ef8186886200108a565b915050826060830152979650505050505050565b808202811582820484141762001052576200105262001026565b8082018082111562001052576200105262001026565b604081526000620011496040830185876200108a565b905082602083015294935050505056fe60806040523480156200001157600080fd5b5060405162001a7238038062001a728339810160408190526200003491620001b7565b60008054336001600160a01b031991821617909155600180549091166001600160a01b03861617905560026200006b8482620002d8565b5060036200007a8382620002d8565b506200008a8162015180620003ba565b620000969042620003da565b60048190556040516001600160a01b038616917f722ae84a51a6ffda776101ab2fd15e847cc928f5e7d09adf73299ef5b12fb94691620000d8918791620003f0565b60405180910390a2505050506200042d565b634e487b7160e01b600052604160045260246000fd5b60005b838110156200011d57818101518382015260200162000103565b50506000910152565b600082601f8301126200013857600080fd5b81516001600160401b0380821115620001555762000155620000ea565b604051601f8301601f19908116603f01168101908282118183101715620001805762000180620000ea565b816040528381528660208588010111156200019a57600080fd5b620001ad84602083016020890162000100565b9695505050505050565b60008060008060808587031215620001ce57600080fd5b84516001600160a01b0381168114620001e657600080fd5b60208601519094506001600160401b03808211156200020457600080fd5b620002128883890162000126565b945060408701519150808211156200022957600080fd5b50620002388782880162000126565b606096909601519497939650505050565b600181811c908216806200025e57607f821691505b6020821081036200027f57634e487b7160e01b600052602260045260246000fd5b50919050565b601f821115620002d357600081815260208120601f850160051c81016020861015620002ae5750805b601f850160051c820191505b81811015620002cf57828155600101620002ba565b5050505b505050565b81516001600160401b03811115620002f457620002f4620000ea565b6200030c8162000305845462000249565b8462000285565b602080601f8311600181146200034457600084156200032b5750858301515b600019600386901b1c1916600185901b178555620002cf565b600085815260208120601f198616915b82811015620003755788860151825594840194600190910190840162000354565b5085821015620003945787850151600019600388901b60f8161c191681555b5050505050600190811b01905550565b634e487b7160e01b600052601160045260246000fd5b8082028115828204841417620003d457620003d4620003a4565b92915050565b80820180821115620003d457620003d4620003a4565b60408152600083518060408401526200041181606085016020880162000100565b602083019390935250601f91909101601f191601606001919050565b611635806200043d6000396000f3fe6080604052600436106101dc5760003560e01c80637b3314a611610102578063c8b9207c11610095578063e12f3a6111610064578063e12f3a611461054d578063e1f1c4a71461056d578063ecfb49a314610583578063f3e41e901461059957600080fd5b8063c8b9207c146104f5578063d31dbc3e14610508578063d4ce85f31461051e578063dbb3f5371461053357600080fd5b80639b34ae03116100d15780639b34ae03146104b15780639e075449146104d0578063a9709c0c146104d8578063b401faf1146104e057600080fd5b80637b3314a614610424578063818fa9411461044457806388770cb0146104715780638da5cb5b1461049157600080fd5b806345993c661161017a5780635b7c2dad116101495780635b7c2dad1461039457806371a2fbfa146102ea5780637284e416146103cf57806373b2e80e146103e457600080fd5b806345993c6614610327578063476343ee1461033c57806356bc793e146103515780635ae01f821461037e57600080fd5b80633197cbb6116101b65780633197cbb6146102b157806334fbc9a1146102d55780633af96b90146102ea5780633fad9ae01461030557600080fd5b806302d05d3f146102295780630bede3f81461026657806323341a051461028857600080fd5b366102245760405162461bcd60e51b815260206004820152601360248201527255736520627579596573206f72206275794e6f60681b60448201526064015b60405180910390fd5b600080fd5b34801561023557600080fd5b50600154610249906001600160a01b031681565b6040516001600160a01b0390911681526020015b60405180910390f35b34801561027257600080fd5b5061028661028136600461137d565b6105af565b005b34801561029457600080fd5b5061029d610702565b60405161025d9897969594939291906113ec565b3480156102bd57600080fd5b506102c760045481565b60405190815260200161025d565b3480156102e157600080fd5b506102c760c881565b3480156102f657600080fd5b506102c766038d7ea4c6800081565b34801561031157600080fd5b5061031a610870565b60405161025d9190611447565b34801561033357600080fd5b506102c76108fe565b34801561034857600080fd5b50610286610943565b34801561035d57600080fd5b506102c761036c36600461145a565b600b6020526000908152604090205481565b34801561038a57600080fd5b506102c760085481565b3480156103a057600080fd5b506103b46103af36600461145a565b610a5b565b6040805193845260208401929092529082015260600161025d565b3480156103db57600080fd5b5061031a610aa5565b3480156103f057600080fd5b506104146103ff36600461145a565b600c6020526000908152604090205460ff1681565b604051901515815260200161025d565b34801561043057600080fd5b5061028661043f36600461137d565b610ab2565b34801561045057600080fd5b506102c761045f36600461145a565b600a6020526000908152604090205481565b34801561047d57600080fd5b5061028661048c366004611483565b610af9565b34801561049d57600080fd5b50600054610249906001600160a01b031681565b3480156104bd57600080fd5b5060065461041490610100900460ff1681565b610286610bd0565b610286610d16565b3480156104ec57600080fd5b50610286610e55565b61028661050336600461137d565b6110de565b34801561051457600080fd5b506102c760075481565b34801561052a57600080fd5b5061041461126a565b34801561053f57600080fd5b506006546104149060ff1681565b34801561055957600080fd5b506102c761056836600461145a565b611285565b34801561057957600080fd5b506102c761271081565b34801561058f57600080fd5b506102c760095481565b3480156105a557600080fd5b506102c760055481565b6001546001600160a01b031633146105f85760405162461bcd60e51b815260206004820152600c60248201526b27b7363c9031b932b0ba37b960a11b604482015260640161021b565b60045442101561063d5760405162461bcd60e51b815260206004820152601060248201526f13585c9ad95d081b9bdd08195b99195960821b604482015260640161021b565b60065460ff16156106905760405162461bcd60e51b815260206004820152601760248201527f4d61726b657420616c7265616479207265736f6c766564000000000000000000604482015260640161021b565b600680548215156101000261ffff199091161760011790554260058190556009546040517fc467918c4a7bed3537d128ba86e494ce4d957e99fc68ecb4a8d5d23cbeebe393926106f792859290919092151583526020830191909152604082015260600190565b60405180910390a150565b60608060008060008060008060026003600454600660009054906101000a900460ff16600660019054906101000a900460ff1660075460085460095487805461074a9061149c565b80601f01602080910402602001604051908101604052809291908181526020018280546107769061149c565b80156107c35780601f10610798576101008083540402835291602001916107c3565b820191906000526020600020905b8154815290600101906020018083116107a657829003601f168201915b505050505097508680546107d69061149c565b80601f01602080910402602001604051908101604052809291908181526020018280546108029061149c565b801561084f5780601f106108245761010080835404028352916020019161084f565b820191906000526020600020905b81548152906001019060200180831161083257829003601f168201915b50505050509650975097509750975097509750975097509091929394959697565b6002805461087d9061149c565b80601f01602080910402602001604051908101604052809291908181526020018280546108a99061149c565b80156108f65780601f106108cb576101008083540402835291602001916108f6565b820191906000526020600020905b8154815290600101906020018083116108d957829003601f168201915b505050505081565b60008060085460075461091191906114ec565b90508060000361092357603291505090565b8060075460646109339190611505565b61093d919061151c565b91505090565b6000546001600160a01b0316331461098a5760405162461bcd60e51b815260206004820152600a60248201526927b7363c9037bbb732b960b11b604482015260640161021b565b47806109c25760405162461bcd60e51b81526020600482015260076024820152664e6f206665657360c81b604482015260640161021b565b600080546040516001600160a01b039091169083908381818185875af1925050503d8060008114610a0f576040519150601f19603f3d011682016040523d82523d6000602084013e610a14565b606091505b5050905080610a575760405162461bcd60e51b815260206004820152600f60248201526e151c985b9cd9995c8819985a5b1959608a1b604482015260640161021b565b5050565b6001600160a01b0381166000908152600a6020908152604080832054600b909252822054909166038d7ea4c68000610a9383856114ec565b610a9d9190611505565b929491935050565b6003805461087d9061149c565b6000546001600160a01b0316331461063d5760405162461bcd60e51b815260206004820152600a60248201526927b7363c9037bbb732b960b11b604482015260640161021b565b6001546001600160a01b03163314610b425760405162461bcd60e51b815260206004820152600c60248201526b27b7363c9031b932b0ba37b960a11b604482015260640161021b565b6004548111610b835760405162461bcd60e51b815260206004820152600d60248201526c26bab9ba103132903630ba32b960991b604482015260640161021b565b6004544210610bcb5760405162461bcd60e51b815260206004820152601460248201527313585c9ad95d08185b1c9958591e48195b99195960621b604482015260640161021b565b600455565b6004544210610bf15760405162461bcd60e51b815260040161021b9061153e565b60065460ff1615610c145760405162461bcd60e51b815260040161021b90611565565b66038d7ea4c68000341015610c3b5760405162461bcd60e51b815260040161021b9061158e565b6000610c4e66038d7ea4c680003461151c565b905060008111610c705760405162461bcd60e51b815260040161021b906115b5565b336000908152600a602052604081208054839290610c8f9084906114ec565b925050819055508060076000828254610ca891906114ec565b925050819055503460096000828254610cc191906114ec565b9091555050604080516001815260208101839052349181019190915242606082015233907fb418c2277f1681d5ef9fb63936a5d089d7b0826175a02c416442efbfeba536af906080015b60405180910390a250565b6004544210610d375760405162461bcd60e51b815260040161021b9061153e565b60065460ff1615610d5a5760405162461bcd60e51b815260040161021b90611565565b66038d7ea4c68000341015610d815760405162461bcd60e51b815260040161021b9061158e565b6000610d9466038d7ea4c680003461151c565b905060008111610db65760405162461bcd60e51b815260040161021b906115b5565b336000908152600b602052604081208054839290610dd59084906114ec565b925050819055508060086000828254610dee91906114ec565b925050819055503460096000828254610e0791906114ec565b9091555050604080516000815260208101839052349181019190915242606082015233907fb418c2277f1681d5ef9fb63936a5d089d7b0826175a02c416442efbfeba536af90608001610d0b565b60065460ff16610e9d5760405162461bcd60e51b815260206004820152601360248201527213585c9ad95d081b9bdd081c995cdbdb1d9959606a1b604482015260640161021b565b336000908152600c602052604090205460ff1615610eef5760405162461bcd60e51b815260206004820152600f60248201526e105b1c9958591e4818db185a5b5959608a1b604482015260640161021b565b6006546000908190610100900460ff1615610f1e575050336000908152600a6020526040902054600754610f34565b5050336000908152600b60205260409020546008545b60008211610f785760405162461bcd60e51b81526020600482015260116024820152704e6f2077696e6e696e672073686172657360781b604482015260640161021b565b60008111610fb55760405162461bcd60e51b815260206004820152600a6024820152694e6f2077696e6e65727360b01b604482015260640161021b565b60008183600954610fc69190611505565b610fd0919061151c565b90506000612710610fe260c884611505565b610fec919061151c565b90506000610ffa82846115ec565b336000818152600c6020526040808220805460ff19166001179055519293509183908381818185875af1925050503d8060008114611054576040519150601f19603f3d011682016040523d82523d6000602084013e611059565b606091505b505090508061109c5760405162461bcd60e51b815260206004820152600f60248201526e151c985b9cd9995c8819985a5b1959608a1b604482015260640161021b565b6040805183815242602082015233917f7472e24de4628e34b41a2aa1688ed4b46a9145b2de1cf93d74902473ccc1740d910160405180910390a2505050505050565b60045442106110ff5760405162461bcd60e51b815260040161021b9061153e565b60065460ff16156111225760405162461bcd60e51b815260040161021b90611565565b66038d7ea4c680003410156111495760405162461bcd60e51b815260040161021b9061158e565b600061115c66038d7ea4c680003461151c565b90506000811161117e5760405162461bcd60e51b815260040161021b906115b5565b81156111c757336000908152600a6020526040812080548392906111a39084906114ec565b9250508190555080600760008282546111bc91906114ec565b909155506112059050565b336000908152600b6020526040812080548392906111e69084906114ec565b9250508190555080600860008282546111ff91906114ec565b90915550505b346009600082825461121791906114ec565b9091555050604080518315158152602081018390523481830152426060820152905133917fb418c2277f1681d5ef9fb63936a5d089d7b0826175a02c416442efbfeba536af919081900360800190a25050565b600060045442108015611280575060065460ff16155b905090565b60065460009060ff1615806112b257506001600160a01b0382166000908152600c602052604090205460ff165b156112bf57506000919050565b6006546000908190610100900460ff16156112f75750506001600160a01b0382166000908152600a6020526040902054600754611316565b50506001600160a01b0382166000908152600b60205260409020546008545b811580611321575080155b15611330575060009392505050565b600081836009546113419190611505565b61134b919061151c565b9050600061271061135d60c884611505565b611367919061151c565b905061137381836115ec565b9695505050505050565b60006020828403121561138f57600080fd5b8135801515811461139f57600080fd5b9392505050565b6000815180845260005b818110156113cc576020818501810151868301820152016113b0565b506000602082860101526020601f19601f83011685010191505092915050565b60006101008083526114008184018c6113a6565b90508281036020840152611414818b6113a6565b604084019990995250509415156060860152921515608085015260a084019190915260c083015260e09091015292915050565b60208152600061139f60208301846113a6565b60006020828403121561146c57600080fd5b81356001600160a01b038116811461139f57600080fd5b60006020828403121561149557600080fd5b5035919050565b600181811c908216806114b057607f821691505b6020821081036114d057634e487b7160e01b600052602260045260246000fd5b50919050565b634e487b7160e01b600052601160045260246000fd5b808201808211156114ff576114ff6114d6565b92915050565b80820281158282048414176114ff576114ff6114d6565b60008261153957634e487b7160e01b600052601260045260246000fd5b500490565b6020808252600d908201526c13585c9ad95d0818db1bdcd959609a1b604082015260600190565b6020808252600f908201526e13585c9ad95d081c995cdbdb1d9959608a1b604082015260600190565b6020808252600d908201526c42656c6f77206d696e696d756d60981b604082015260600190565b60208082526019908201527f4d75737420627579206174206c65617374203120736861726500000000000000604082015260600190565b818103818111156114ff576114ff6114d656fea264697066735822122013c81383e9a5f9eb1df2c6c4212d35a80227d98cca39c494f686191d1695bb0664736f6c63430008130033a26469706673582212209bf47e2f635bca395822d1970450bd2e144a628af9440f96aeb98aa748ce52f864736f6c63430008130033",
  "linkReferences": {},
  "deployedLinkReferences": {}
}